{
	"contractName": "DeDup",
	"abi": [
		{
			"inputs": [
				{
					"internalType": "uint256",
					"name": "_pricePerKBInWei",
					"type": "uint256"
				}
			],
			"stateMutability": "nonpayable",
			"type": "constructor"
		},
		{
			"anonymous": false,
			"inputs": [
				{
					"indexed": false,
					"internalType": "string",
					"name": "ack",
					"type": "string"
				}
			],
			"name": "AcknowledgeReceivePay",
			"type": "event"
		},
		{
			"anonymous": false,
			"inputs": [
				{
					"indexed": false,
					"internalType": "string",
					"name": "CID",
					"type": "string"
				},
				{
					"indexed": false,
					"internalType": "address",
					"name": "owner",
					"type": "address"
				}
			],
			"name": "AdminConfirmation",
			"type": "event"
		},
		{
			"anonymous": false,
			"inputs": [
				{
					"indexed": false,
					"internalType": "string",
					"name": "CID",
					"type": "string"
				},
				{
					"indexed": false,
					"internalType": "address",
					"name": "owner",
					"type": "address"
				}
			],
			"name": "OwnerConfirmation",
			"type": "event"
		},
		{
			"inputs": [],
			"name": "Admin",
			"outputs": [
				{
					"internalType": "address payable",
					"name": "",
					"type": "address"
				}
			],
			"stateMutability": "view",
			"type": "function"
		},
		{
			"inputs": [],
			"name": "AdminPay",
			"outputs": [
				{
					"internalType": "uint256",
					"name": "",
					"type": "uint256"
				}
			],
			"stateMutability": "view",
			"type": "function"
		},
		{
			"inputs": [
				{
					"internalType": "string",
					"name": "",
					"type": "string"
				}
			],
			"name": "CIDExsists",
			"outputs": [
				{
					"internalType": "bool",
					"name": "",
					"type": "bool"
				}
			],
			"stateMutability": "view",
			"type": "function"
		},
		{
			"inputs": [],
			"name": "pricePerKBInWei",
			"outputs": [
				{
					"internalType": "uint256",
					"name": "",
					"type": "uint256"
				}
			],
			"stateMutability": "view",
			"type": "function"
		},
		{
			"inputs": [
				{
					"internalType": "address",
					"name": "",
					"type": "address"
				}
			],
			"name": "refundPending",
			"outputs": [
				{
					"internalType": "uint256",
					"name": "",
					"type": "uint256"
				}
			],
			"stateMutability": "view",
			"type": "function"
		},
		{
			"inputs": [
				{
					"internalType": "uint256",
					"name": "_pricePerKB",
					"type": "uint256"
				}
			],
			"name": "setPricePerKBInWei",
			"outputs": [],
			"stateMutability": "nonpayable",
			"type": "function"
		},
		{
			"inputs": [],
			"name": "getPricePerKBInWei",
			"outputs": [
				{
					"internalType": "uint256",
					"name": "_pricePerKB",
					"type": "uint256"
				}
			],
			"stateMutability": "view",
			"type": "function"
		},
		{
			"inputs": [
				{
					"internalType": "string",
					"name": "CID",
					"type": "string"
				}
			],
			"name": "receivePay",
			"outputs": [],
			"stateMutability": "payable",
			"type": "function"
		},
		{
			"inputs": [
				{
					"internalType": "string",
					"name": "CID",
					"type": "string"
				},
				{
					"internalType": "uint256",
					"name": "sizeInKB",
					"type": "uint256"
				},
				{
					"internalType": "address",
					"name": "owner",
					"type": "address"
				}
			],
			"name": "addOwner",
			"outputs": [],
			"stateMutability": "nonpayable",
			"type": "function"
		},
		{
			"inputs": [
				{
					"internalType": "string",
					"name": "CID",
					"type": "string"
				},
				{
					"internalType": "uint256",
					"name": "sizeInKB",
					"type": "uint256"
				}
			],
			"name": "getCurrentPrice",
			"outputs": [
				{
					"internalType": "uint256",
					"name": "",
					"type": "uint256"
				}
			],
			"stateMutability": "view",
			"type": "function"
		},
		{
			"inputs": [],
			"name": "withDrawUser",
			"outputs": [],
			"stateMutability": "payable",
			"type": "function"
		},
		{
			"inputs": [],
			"name": "withDrawAdmin",
			"outputs": [],
			"stateMutability": "payable",
			"type": "function"
		},
		{
			"inputs": [
				{
					"internalType": "string",
					"name": "CID",
					"type": "string"
				}
			],
			"name": "refundOwner",
			"outputs": [],
			"stateMutability": "payable",
			"type": "function"
		},
		{
			"inputs": [
				{
					"internalType": "string",
					"name": "CID",
					"type": "string"
				}
			],
			"name": "isCIDExsists",
			"outputs": [
				{
					"internalType": "bool",
					"name": "",
					"type": "bool"
				}
			],
			"stateMutability": "view",
			"type": "function"
		}
	],
	"bytecode": "0x60806040523480156200001157600080fd5b50604051620019aa380380620019aa8339818101604052810190620000379190620000c6565b33600360006101000a81548173ffffffffffffffffffffffffffffffffffffffff021916908373ffffffffffffffffffffffffffffffffffffffff1602179055508060048190555050620000f8565b600080fd5b6000819050919050565b620000a0816200008b565b8114620000ac57600080fd5b50565b600081519050620000c08162000095565b92915050565b600060208284031215620000df57620000de62000086565b5b6000620000ef84828501620000af565b91505092915050565b6118a280620001086000396000f3fe6080604052600436106100dd5760003560e01c8063962ef4ab1161007f578063bd17c9ac11610059578063bd17c9ac14610264578063f195b2511461028f578063fc033c81146102cc578063ff1b636d146102f5576100dd565b8063962ef4ab146101f4578063a43cc1d71461021f578063aa92128b1461023b576100dd565b806348bb60ea116100bb57806348bb60ea146101455780636b8673e9146101705780637dab20d2146101ad578063836f983b146101ea576100dd565b80632c8eac0e146100e257806331216b42146100ec578063471d0b6314610129575b600080fd5b6100ea610320565b005b3480156100f857600080fd5b50610113600480360381019061010e919061119e565b6103ef565b6040516101209190611209565b60405180910390f35b610143600480360381019061013e9190611224565b61043f565b005b34801561015157600080fd5b5061015a6105a3565b6040516101679190611209565b60405180910390f35b34801561017c57600080fd5b50610197600480360381019061019291906112cb565b6105a9565b6040516101a49190611209565b60405180910390f35b3480156101b957600080fd5b506101d460048036038101906101cf9190611224565b6105c1565b6040516101e19190611313565b60405180910390f35b6101f26105f5565b005b34801561020057600080fd5b506102096106c8565b6040516102169190611209565b60405180910390f35b61023960048036038101906102349190611224565b6106d2565b005b34801561024757600080fd5b50610262600480360381019061025d919061132e565b610860565b005b34801561027057600080fd5b506102796108c4565b6040516102869190611209565b60405180910390f35b34801561029b57600080fd5b506102b660048036038101906102b19190611224565b6108ca565b6040516102c39190611313565b60405180910390f35b3480156102d857600080fd5b506102f360048036038101906102ee919061135b565b610900565b005b34801561030157600080fd5b5061030a610df9565b60405161031791906113eb565b60405180910390f35b600360009054906101000a900473ffffffffffffffffffffffffffffffffffffffff1673ffffffffffffffffffffffffffffffffffffffff163373ffffffffffffffffffffffffffffffffffffffff161461037a57600080fd5b600360009054906101000a900473ffffffffffffffffffffffffffffffffffffffff1673ffffffffffffffffffffffffffffffffffffffff166108fc6005549081150290604051600060405180830381858888f193505050501580156103e4573d6000803e3d6000fd5b506000600581905550565b60006103fa836105c1565b156104285760018360405161040f9190611480565b9081526020016040518091039020600101549050610439565b6004548261043691906114c6565b90505b92915050565b60018160405161044f9190611480565b90815260200160405180910390206001015434101561046d57600080fd5b3460018260405161047e9190611480565b9081526020016040518091039020600601600082825461049e9190611520565b92505081905550346001826040516104b69190611480565b908152602001604051809103902060050160003373ffffffffffffffffffffffffffffffffffffffff1673ffffffffffffffffffffffffffffffffffffffff16815260200190815260200160002081905550426001826040516105199190611480565b9081526020016040518091039020600a0160003373ffffffffffffffffffffffffffffffffffffffff1673ffffffffffffffffffffffffffffffffffffffff168152602001908152602001600020819055507f91da3b98181818d55b962b015503eae64f1162a1d47906dcc87d879351dd51ee604051610598906115d3565b60405180910390a150565b60055481565b60026020528060005260406000206000915090505481565b600080826040516105d29190611480565b908152602001604051809103902060009054906101000a900460ff169050919050565b60003390508073ffffffffffffffffffffffffffffffffffffffff166108fc600260003373ffffffffffffffffffffffffffffffffffffffff1673ffffffffffffffffffffffffffffffffffffffff168152602001908152602001600020549081150290604051600060405180830381858888f1935050505015801561067f573d6000803e3d6000fd5b506000600260003373ffffffffffffffffffffffffffffffffffffffff1673ffffffffffffffffffffffffffffffffffffffff1681526020019081526020016000208190555050565b6000600454905090565b60146001826040516106e49190611480565b9081526020016040518091039020600a0160003373ffffffffffffffffffffffffffffffffffffffff1673ffffffffffffffffffffffffffffffffffffffff1681526020019081526020016000205461073d9190611520565b431161074857600080fd5b6001816040516107589190611480565b908152602001604051809103902060090160003360405160200161077c919061163b565b60405160208183030381529060405280519060200120815260200190815260200160002060009054906101000a900460ff16156107b857600080fd5b3373ffffffffffffffffffffffffffffffffffffffff166108fc6001836040516107e29190611480565b908152602001604051809103902060050160003373ffffffffffffffffffffffffffffffffffffffff1673ffffffffffffffffffffffffffffffffffffffff168152602001908152602001600020549081150290604051600060405180830381858888f1935050505015801561085c573d6000803e3d6000fd5b5050565b600360009054906101000a900473ffffffffffffffffffffffffffffffffffffffff1673ffffffffffffffffffffffffffffffffffffffff163373ffffffffffffffffffffffffffffffffffffffff16146108ba57600080fd5b8060048190555050565b60045481565b6000818051602081018201805184825260208301602085012081835280955050505050506000915054906101000a900460ff1681565b600360009054906101000a900473ffffffffffffffffffffffffffffffffffffffff1673ffffffffffffffffffffffffffffffffffffffff163373ffffffffffffffffffffffffffffffffffffffff161415610a0857600180846040516109679190611480565b9081526020016040518091039020600801600085858560405160200161098f93929190611677565b60405160208183030381529060405280519060200120815260200190815260200160002060006101000a81548160ff0219169083151502179055507f28f5bbb1138af4d6a1a3238f11233ee0013d6b8f12bf6ee01f7c7e1049d792d983826040516109fb9291906116f8565b60405180910390a1610df4565b600183604051610a189190611480565b90815260200160405180910390206008016000848433604051602001610a4093929190611677565b60405160208183030381529060405280519060200120815260200190815260200160002060009054906101000a900460ff16610ab1576040517f08c379a0000000000000000000000000000000000000000000000000000000008152600401610aa890611774565b60405180910390fd5b610aba836105c1565b610cf75781600184604051610acf9190611480565b908152602001604051809103902060020181905550600183604051610af49190611480565b908152602001604051809103902060000154600184604051610b169190611480565b908152602001604051809103902060070160003373ffffffffffffffffffffffffffffffffffffffff1673ffffffffffffffffffffffffffffffffffffffff16815260200190815260200160002081905550610b7283836103ef565b600184604051610b829190611480565b9081526020016040518091039020600301819055506002600184604051610ba99190611480565b908152602001604051809103902060030154610bc591906117c3565b600184604051610bd59190611480565b908152602001604051809103902060010181905550600183604051610bfa9190611480565b90815260200160405180910390206006015460056000828254610c1d9190611520565b925050819055506000600184604051610c369190611480565b9081526020016040518091039020600601819055506001600084604051610c5d9190611480565b908152602001604051809103902060006101000a81548160ff02191690831515021790555060018084604051610c939190611480565b9081526020016040518091039020600901600033604051602001610cb7919061163b565b60405160208183030381529060405280519060200120815260200190815260200160002060006101000a81548160ff021916908315150217905550610d01565b610d0083610e1f565b5b600183604051610d119190611480565b90815260200160405180910390206000016000815480929190610d33906117f4565b9190505550600183604051610d489190611480565b9081526020016040518091039020600401339080600181540180825580915050600190039060005260206000200160009091909190916101000a81548173ffffffffffffffffffffffffffffffffffffffff021916908373ffffffffffffffffffffffffffffffffffffffff1602179055507fb8474d40f89afd5cc68f8210ac7c13cb2fd912cab04d3c015e07db023f5cadbf8382604051610deb9291906116f8565b60405180910390a15b505050565b600360009054906101000a900473ffffffffffffffffffffffffffffffffffffffff1681565b6000600182604051610e319190611480565b908152602001604051809103902060000154600183604051610e539190611480565b908152602001604051809103902060060154610e6f91906117c3565b905060005b600183604051610e849190611480565b908152602001604051809103902060000154811015610f63578160026000600186604051610eb29190611480565b90815260200160405180910390206004018481548110610ed557610ed461183d565b5b9060005260206000200160009054906101000a900473ffffffffffffffffffffffffffffffffffffffff1673ffffffffffffffffffffffffffffffffffffffff1673ffffffffffffffffffffffffffffffffffffffff1681526020019081526020016000206000828254610f499190611520565b925050819055508080610f5b906117f4565b915050610e74565b506000600183604051610f769190611480565b9081526020016040518091039020600601819055506002600183604051610f9d9190611480565b908152602001604051809103902060000154610fb99190611520565b600183604051610fc99190611480565b908152602001604051809103902060030154610fe591906117c3565b600183604051610ff59190611480565b9081526020016040518091039020600101819055505050565b6000604051905090565b600080fd5b600080fd5b600080fd5b600080fd5b6000601f19601f8301169050919050565b7f4e487b7100000000000000000000000000000000000000000000000000000000600052604160045260246000fd5b6110758261102c565b810181811067ffffffffffffffff821117156110945761109361103d565b5b80604052505050565b60006110a761100e565b90506110b3828261106c565b919050565b600067ffffffffffffffff8211156110d3576110d261103d565b5b6110dc8261102c565b9050602081019050919050565b82818337600083830152505050565b600061110b611106846110b8565b61109d565b90508281526020810184848401111561112757611126611027565b5b6111328482856110e9565b509392505050565b600082601f83011261114f5761114e611022565b5b813561115f8482602086016110f8565b91505092915050565b6000819050919050565b61117b81611168565b811461118657600080fd5b50565b60008135905061119881611172565b92915050565b600080604083850312156111b5576111b4611018565b5b600083013567ffffffffffffffff8111156111d3576111d261101d565b5b6111df8582860161113a565b92505060206111f085828601611189565b9150509250929050565b61120381611168565b82525050565b600060208201905061121e60008301846111fa565b92915050565b60006020828403121561123a57611239611018565b5b600082013567ffffffffffffffff8111156112585761125761101d565b5b6112648482850161113a565b91505092915050565b600073ffffffffffffffffffffffffffffffffffffffff82169050919050565b60006112988261126d565b9050919050565b6112a88161128d565b81146112b357600080fd5b50565b6000813590506112c58161129f565b92915050565b6000602082840312156112e1576112e0611018565b5b60006112ef848285016112b6565b91505092915050565b60008115159050919050565b61130d816112f8565b82525050565b60006020820190506113286000830184611304565b92915050565b60006020828403121561134457611343611018565b5b600061135284828501611189565b91505092915050565b60008060006060848603121561137457611373611018565b5b600084013567ffffffffffffffff8111156113925761139161101d565b5b61139e8682870161113a565b93505060206113af86828701611189565b92505060406113c0868287016112b6565b9150509250925092565b60006113d58261126d565b9050919050565b6113e5816113ca565b82525050565b600060208201905061140060008301846113dc565b92915050565b600081519050919050565b600081905092915050565b60005b8381101561143a57808201518184015260208101905061141f565b83811115611449576000848401525b50505050565b600061145a82611406565b6114648185611411565b935061147481856020860161141c565b80840191505092915050565b600061148c828461144f565b915081905092915050565b7f4e487b7100000000000000000000000000000000000000000000000000000000600052601160045260246000fd5b60006114d182611168565b91506114dc83611168565b9250817fffffffffffffffffffffffffffffffffffffffffffffffffffffffffffffffff048311821515161561151557611514611497565b5b828202905092915050565b600061152b82611168565b915061153683611168565b9250827fffffffffffffffffffffffffffffffffffffffffffffffffffffffffffffffff0382111561156b5761156a611497565b5b828201905092915050565b600082825260208201905092915050565b7f5061796d656e7420526563656976656400000000000000000000000000000000600082015250565b60006115bd601083611576565b91506115c882611587565b602082019050919050565b600060208201905081810360008301526115ec816115b0565b9050919050565b60008160601b9050919050565b600061160b826115f3565b9050919050565b600061161d82611600565b9050919050565b6116356116308261128d565b611612565b82525050565b60006116478284611624565b60148201915081905092915050565b6000819050919050565b61167161166c82611168565b611656565b82525050565b6000611683828661144f565b915061168f8285611660565b60208201915061169f8284611624565b601482019150819050949350505050565b60006116bb82611406565b6116c58185611576565b93506116d581856020860161141c565b6116de8161102c565b840191505092915050565b6116f28161128d565b82525050565b6000604082019050818103600083015261171281856116b0565b905061172160208301846116e9565b9392505050565b7f55736572206e6f7420636f6e6669726d65640000000000000000000000000000600082015250565b600061175e601283611576565b915061176982611728565b602082019050919050565b6000602082019050818103600083015261178d81611751565b9050919050565b7f4e487b7100000000000000000000000000000000000000000000000000000000600052601260045260246000fd5b60006117ce82611168565b91506117d983611168565b9250826117e9576117e8611794565b5b828204905092915050565b60006117ff82611168565b91507fffffffffffffffffffffffffffffffffffffffffffffffffffffffffffffffff82141561183257611831611497565b5b600182019050919050565b7f4e487b7100000000000000000000000000000000000000000000000000000000600052603260045260246000fdfea2646970667358221220c650858d47b392249ceff1c857930025ee00a313d086f5f5de7ea9259ca9a90864736f6c634300080b0033",
	"immutableReferences": {},
	"source": "pragma solidity ^0.8.0;\n\ncontract DeDup {\n    struct data {\n        uint256 numOwners; // Num of owners submitting the same file\n        uint256 currentPrice; // Current Price to store the file\n        uint256 sizeInKB;   // Size of the file in KB\n        uint256 actualPrice; // Start price to store the file\n        address[] owners;   // list of owners of the file\n        mapping(address => uint256) isPaid; // A mapping to track how much a user had paid\n        uint256 moneyToDistribute; // A leftover money to distribute\n        mapping(address => uint256) isOwner; // index of the owner in list of owners\n        mapping(bytes32 => bool) isConfirmedByAdmin; // Flag to indicate whether Admin approved the deal\n        mapping(bytes32=>bool) isConfirmedByOwner; // Flag to indicate whether owner approved the deal\n        mapping(address=>uint) userPayTime; // Store the block.number of the user payment\n    }\n    mapping(string => bool) public CIDExsists;  // A mapping to know duplicate CID\n    mapping(string => data) Data;               // A mapping of the struct data\n    mapping(address => uint256) public refundPending; // A mapping to know a owners refunded amount\n    address payable public Admin;                  // Admin address\n    uint256 public pricePerKBInWei;             // Price per KB in wei\n    uint256 public AdminPay;             // Pay to be received by Admin\n    \n    event AcknowledgeReceivePay(string ack);\n    event AdminConfirmation(string CID, address owner);\n    event OwnerConfirmation(string CID, address owner);\n    /** constructor \n     * input: uint256 - represent price per KB In wei\n     * returns nil */\n    constructor(uint256 _pricePerKBInWei) {\n        Admin = payable(msg.sender);\n        pricePerKBInWei = _pricePerKBInWei;\n    }\n    /** modifier\n     * checks whether the msg.sender is Admin\n     */\n    modifier onlyAdmin() {\n        require(msg.sender == Admin);\n        _;\n    }\n    /** setPricePerKBInWei\n     * sets the new price per KB in Wei\n     * inputs: uint256\n     * output: nil\n     */\n    function setPricePerKBInWei(uint256 _pricePerKB) external onlyAdmin {\n        pricePerKBInWei = _pricePerKB;\n    }\n\n    /** getPricePerKBInWei\n     * returns the current price per KB in Wei\n     * inputs: nil\n     * output: uint256\n     */\n    function getPricePerKBInWei() external view returns (uint256 _pricePerKB) {\n        return pricePerKBInWei;\n    }\n    /** receivePay\n     * user should call for paying the cost of storing the file \n     * inputs: CID, msg.value\n     * output: nil\n     * events: AcknowledgeReceivePay(string)\n     */\n    function receivePay(string memory CID) external payable {\n        require(msg.value >= Data[CID].currentPrice);\n        Data[CID].moneyToDistribute += msg.value;\n        Data[CID].isPaid[msg.sender] = msg.value;\n        Data[CID].userPayTime[msg.sender] = block.timestamp;\n        emit AcknowledgeReceivePay(\"Payment Received\");\n    }\n    /** addOwner\n     * This function is called by Admin to confirm user details\n     * This function is called by owner for confirming the deal\n     * inputs: bytes32, uint256, address\n     * ouputs: nil\n     * events: AdminConfirmation, OwnerConfirmation\n     */\n    function addOwner(\n        string memory CID,\n        uint256 sizeInKB,\n        address owner\n    ) public {\n        if (msg.sender == Admin) {\n            Data[CID].isConfirmedByAdmin[keccak256(abi.encodePacked(CID,sizeInKB,owner))] = true;\n            emit AdminConfirmation(CID, owner);\n        } else {\n            require(Data[CID].isConfirmedByAdmin[keccak256(abi.encodePacked(CID,sizeInKB,msg.sender))], \"User not confirmed\");\n            if (!isCIDExsists(CID)) {\n                Data[CID].sizeInKB = sizeInKB;\n                Data[CID].isOwner[msg.sender] = Data[CID].numOwners;\n                Data[CID].actualPrice = getCurrentPrice(CID, sizeInKB);\n                Data[CID].currentPrice = Data[CID].actualPrice / 2;\n                AdminPay += Data[CID].moneyToDistribute;\n                Data[CID].moneyToDistribute = 0;\n                CIDExsists[CID] = true;\n                Data[CID].isConfirmedByOwner[keccak256(abi.encodePacked(msg.sender))] = true;\n            } else {\n                updatePrice(CID);\n            }\n            Data[CID].numOwners++;\n            Data[CID].owners.push(msg.sender);\n            emit OwnerConfirmation(CID, owner);\n        }\n    }\n    /** getCurrentPrice\n     * Return the current price of the CID.\n     * inputs: bytes32, uint256\n     * output: uint256\n     */\n    function getCurrentPrice(string memory CID, uint256 sizeInKB)\n        public\n        view\n        returns (uint256)\n    {\n        if (isCIDExsists(CID)) {\n            return Data[CID].currentPrice;\n        } else {\n            return sizeInKB * pricePerKBInWei;\n        }\n    }\n\n    /** updatePrice\n     * Internal function to update the refund balances of the owners\n     * Also, change the price according to the deduplication price\n     * input: bytes32\n     * output: nil\n     */\n\n    function updatePrice(string memory CID) internal {\n        uint256 remaining = Data[CID].moneyToDistribute / (Data[CID].numOwners);\n        for (uint256 i = 0; i < Data[CID].numOwners; i++) {\n            refundPending[Data[CID].owners[i]] += remaining;\n        }\n        Data[CID].moneyToDistribute = 0;\n        Data[CID].currentPrice =\n            Data[CID].actualPrice /\n            (Data[CID].numOwners + 2);\n    }\n\n    /** withDrawUser\n     * This function helps user to withdraw accumulated coins\n     * input: nil\n     * output: nil\n     */\n    function withDrawUser() external payable {\n        address payable receiver = payable(msg.sender);\n        //emit test(refundPending[msg.sender]);\n        receiver.transfer(refundPending[msg.sender]);\n        refundPending[msg.sender] = 0;\n    }\n    /** withDrawAdmin\n     * This function helps Admin to withdraw accumulated coins\n     * input: nil\n     * output: nil\n     */\n    function withDrawAdmin() external payable onlyAdmin {\n        Admin.transfer(AdminPay);\n        AdminPay = 0;\n    }\n    /** refundOwner\n     * This function user to withdraw funds if either of the Admin or owner not confirm the deal\n     * input: bytes32\n     * output: nil\n     */\n    function refundOwner(string memory CID) payable external{\n        require(block.number > Data[CID].userPayTime[msg.sender] + 20);\n        require(!Data[CID].isConfirmedByOwner[keccak256(abi.encodePacked(msg.sender))]);\n        payable(msg.sender).transfer(Data[CID].isPaid[msg.sender]);\n    }\n    /** isCIDExsists\n     * input: bytes32\n     * output: bool\n     */\n    function isCIDExsists(string memory CID) public view returns (bool) {\n        return CIDExsists[CID];\n    }\n}\n",
	"sourcePath": "/home/mnr/workspace/Dedup/contracts/DeDup.sol",
	"compiler": {
		"name": "solc",
		"version": "0.8.11+commit.d7f03943.Emscripten.clang"
	},
	"schemaVersion": "3.4.4",
	"updatedAt": "2022-12-03T23:39:32.287Z",
	"devdoc": {
		"kind": "dev",
		"methods": {},
		"version": 1
	},
	"userdoc": {
		"kind": "user",
		"methods": {
			"addOwner(string,uint256,address)": {
				"notice": "addOwner This function is called by Admin to confirm user details This function is called by owner for confirming the deal inputs: bytes32, uint256, address ouputs: nil events: AdminConfirmation, OwnerConfirmation"
			},
			"constructor": {
				"notice": "constructor  input: uint256 - represent price per KB In wei returns nil "
			},
			"getCurrentPrice(string,uint256)": {
				"notice": "getCurrentPrice Return the current price of the CID. inputs: bytes32, uint256 output: uint256"
			},
			"getPricePerKBInWei()": {
				"notice": "getPricePerKBInWei returns the current price per KB in Wei inputs: nil output: uint256"
			},
			"isCIDExsists(string)": {
				"notice": "isCIDExsists input: bytes32 output: bool"
			},
			"receivePay(string)": {
				"notice": "receivePay user should call for paying the cost of storing the file  inputs: CID, msg.value output: nil events: AcknowledgeReceivePay(string)"
			},
			"refundOwner(string)": {
				"notice": "refundOwner This function user to withdraw funds if either of the Admin or owner not confirm the deal input: bytes32 output: nil"
			},
			"setPricePerKBInWei(uint256)": {
				"notice": "setPricePerKBInWei sets the new price per KB in Wei inputs: uint256 output: nil"
			},
			"withDrawAdmin()": {
				"notice": "withDrawAdmin This function helps Admin to withdraw accumulated coins input: nil output: nil"
			},
			"withDrawUser()": {
				"notice": "withDrawUser This function helps user to withdraw accumulated coins input: nil output: nil"
			}
		},
		"version": 1
	}
}